S01C000050574D5F50574D5F4C45445F4558414D504C45312E73726563F1
S214080000782A072045090800410908004109080020
S21408001041090800410908004109080000000000DD
S2140800200000000000000000000000004109080071
S21408003041090800000000004109080041090800BD
S214080040410908004109080041090800410908005B
S214080050410908004109080041090800410908004B
S21408006041090800410908000000000029050800A9
S2140800703D05080051050800650508000000000059
S214080080000000004109080041090800410908006D
S214080090410908004109080041090800410908000B
S2140800A0410908000000000041090800410908004D
S2140800B041090800410908004109080041090800EB
S2140800C041090800410908004109080041090800DB
S2140800D0A50C080041090800410908004109080064
S2140800E041090800410908004109080041090800BB
S2140800F04109080010B5054C237833B9044B13B1F1
S2140801000448AFF300800123237010BD740907204C
S21408011000000000302A0800084B10B51BB108483C
S2140801200849AFF300800848036803B910BD074BB9
S214080130002BFBD0BDE81040184700BF00000000A9
S214080140302A080078090720302A08000000000036
S21408015010B50E480E4B984700203E210D4B984789
S2140801600D4CA0470028FCD00C4B98470C4A0D4B6A
S2140801709A620D4CA0470028FCD010200B4B9847DD
S2140801800B4B98470148024B984710BD00BD010528
S214080190A5000720E1050800350608004506080002
S2140801A0013F0D2000060E40550608007905080098
S2140801B0F5090800A8B92DE9F0410C469046002A32
S2140801C00ADD8F18084E094D306821462B68984777
S2140801D00134BC42F8D101E04FF000084046BDE8C3
S2140801E0F0814FF0FF307047480A0720400A072082
S2140801F00138022818D82DE9F0410E46144682B177
S2140802000D46DFF838800C4FD8F8000015F8011BAB
S2140802103B68984700280ADBA81B013CF4D1BDE8D8
S214080220F0810020BDE8F0814FF0FF3070474FF0B6
S214080230FF30BDE8F08100BF440A0720480A0720BF
S21408024010B54FF40042164B5A600B20154CA047C9
S2140802500C20A0470D20A0470E20A0473B204FF0BB
S2140802606051114CA04755204FF06051A0475620CA
S2140802704FF06051A04768200C49A0475C200C4905
S214080280A0470C484FF440710B4A0C4B9847552032
S2140802904FF08051A04756204FF08051A04710BD20
S2140802A0501A0E4065060800650308007900002805
S2140802B001000028000E0E4001000008390408005E
S2140802C04264B1F1805F16D004D8C1B1B1F1006FB5
S2140802D00AD013E0B1F1405F11D0B1F1605F0ED0E3
S2140802E0B1F1205F0AD17047036F016F0B4023EA14
S2140802F00203036702E0036F134303674260704715
S214080300416412F0010F14BF4166016612F00A0F2D
S21408031014BF0162416212F0020F02D0C0F88010CA
S21408032004E012F0080F18BFC0F88410416101609D
S214080330704700BF10B44164019C0CB1416600E0F0
S21408034001660BB1016500E041650AB1016300E092
S2140803504163016101605DF8044B7047C06C7047EB
S214080360806C704770B582B00D46430903F50013DC
S21408037003F207735C0201F0F043B3F1205F30D05C
S21408038006D8B3F1006F0AD0B3F1805F18D049E001
S214080390B3F1405F30D0B3F1605F2DD042E000F09B
S2140803A01F000126864020464FF0006132461F4B4C
S2140803B0984715F0010F14BF66662666012032E0DE
S2140803C000F01F000126864020464FF08051324636
S2140803D0164B984715F0010F14BF6666266601206F
S2140803E021E000F01F030126204606FA03F12A46FC
S2140803F00F4B9847304616E000F01F03012605F01D
S214080400605205EA06010091204606FA03F1B2F1A9
S214080410605F14BF00220122C5F38003054CA04785
S214080420304600E0002002B070BD00BFC1020800E0
S214080430010308003503080070B582B006460D466D
S214080440144602F0F043B3F1205F26D006D8B3F185
S214080450006F0AD0B3F1805F13D034E0B3F1405F89
S2140804601FD0B3F1605F1CD02DE04FF000612A4624
S214080470164B984714F0010F14BF756635660120B1
S21408048022E04FF080512A46104B984714F0010F8F
S21408049014BF75663566012016E00D4B9847012097
S2140804A012E004F0605204F0010300933046294637
S2140804B0B2F1605F14BF00220122C4F38003054C2A
S2140804C0A047012000E0002002B070BDC10208006D
S2140804D001030800350308002DE9F0410446884664
S2140804E00E4B9847054620460D4B9847054013D0B7
S2140804F00C4C04F160062368434508D1616829421C
S21408050005D0E36840469847636825EA0305B44281
S21408051002D01034002DEED1BDE8F0815D0308004E
S214080520610308009009072008B502480B21024B12
S214080530984708BD000E0E40D904080008B50248C2
S2140805400C21024B984708BD00100E40D90408003D
S21408055008B502480D21024B984708BD00120E4008
S214080560D904080008B502480E21024B984708BD72
S21408057000140E40D9040800184A136B23F07003C1
S21408058018431063936E13F0080F03D009E0013B7D
S21408059003D11EE04FF4006310498A6E12F0080F6C
S2140805A0F5D00E4A136B23F0030343F002031363DC
S2140805B0906E10F0080004D000207047013B03D16D
S2140805C009E04FF4006305498A6E12F0080FF5D06B
S2140805D07047012070470120704700BF00060E4094
S2140805E038B111490B6A114A1A40114B13430B6272
S2140805F070470D4A136A23F45C1323F0030343F48D
S2140806005C1343F00103090289B20B431362936E2D
S21408061013F0010FFBD0044A136A43F09B7343F4AC
S21408062080331362704700BF00060E40FCFFC8FE0A
S21408063002003701024B986E00F48030704700BF06
S21408064000060E404FF00052014B9A62704700BFFA
S21408065000060E40024B986E00F00200704700BF7E
S21408066000060E402C281ED81F280CD8114B9A6955
S214080670012383401A40934217D0012383400D4A32
S2140806801361002070470B4BD3F80821203801234C
S21408069083401A4093420AD001238340054AC2F891
S2140806A00031002070470120704700207047002066
S2140806B0704700BF00060E40F0B48CB007460E46E2
S2140806C001AC114D0FCD0FC40FCD0FC495E8070030
S2140806D084E8070001AA002052F8043BB6FBF3F3AF
S2140806E0B3FBF7F3B3F5807F05D901300B28F3D1B8
S2140806F04FF6FF7005E00A2894BF43EA00204FF63D
S214080700FF700CB0F0BC70478029080070B506462C
S2140807100C46086840B189680E4B984705464FF660
S214080720FF73984201D10EE00025606840B1A168C9
S214080730084B98474FF6FF73984207D045EA00459E
S2140807403560002070BD4FF6FF7070BD4FF6FF7025
S21408075070BD00BFB906080070B40B688A8A4C687A
S21408076004F00F0422430C8922438C7A42EA44227E
S2140807708C7D42EA0442CC7D42EA44420C7E42EA40
S214080780844200EB4314C4F80022CA68C4F8042262
S2140807900A69C4F80C228A7D3AB18C8B4A8B42EAE5
S2140807A0044200EB4314C4F81822846C4FF001127C
S2140807B09A40D24302EA0405CC7F04FA03F68C7FFB
S2140807C09C4044EA06442C438464446C144091F8E4
S2140807D0212002FA03F591F820209A4042EA0542C1
S2140807E02243426401229A4091F822401CB1046ACE
S2140807F01443046203E0046A24EA0204046291F8DB
S2140808002440012C846E0CBF14439443846691F8EC
S2140808102540012C846E0CBF44EA024224EA0242B8
S2140808208266032B0BD8C46EDD00FF22AA4024EA9A
S214080830020291F82330AB401343C3660CE0043B36
S214080840026FDB00FF249C4022EA040491F8232070
S21408085002FA03F323430367002070BC704700BF07
S21408086010B40C680B69934206D3CA6000EB4410B8
S214080870C0F80822002001E04FF6FF705DF8044B30
S214080880704700BF01238B404360704701238B40AD
S21408089083607047C06970471032012303FA02F27A
S2140808A08B401343036170471032012303FA02F2A8
S2140808B08B4013434361704710B4AC2303600B6846
S2140808C04A68B3FBF2F31B095C1E4FF6FE729442AD
S2140808D00AD803628B68436040F20223C0F82031CE
S2140808E050230360002000E001205DF8044B7047A9
S2140808F0436913F0020F1ABFC16100200120704738
S214080900436913F0010F1DBF83690B700020012097
S214080910704700BF436913F0020F1DBFC1F30801FB
S214080920C161002001207047436913F0010F05D00C
S2140809308369C3F308030B600020704701207047E3
S214080940FEE700BF08B51F4B1F4A9A4203D01F4B4D
S2140809501C4A9A4204D31E4B1E4A9A4210D31BE0E6
S21408096018490A1D1C4B9B1A23F003030433164A26
S214080970134452F8040B41F8040B9A42F9D1EAE7FB
S214080980164B174AD21A22F003021A44043B0021D7
S21408099043F8041B9342FBD1124B23F0604222F02B
S2140809A07F0211498A6003F16043B3F5801F03D2C2
S2140809B08B6843F000538B600C4B98470C4B98475A
S2140809C0FEE700BF00000720302A08007409072049
S2140809D0780A07207409072077090720780907206E
S2140809E07B0A07200000080000ED00E08D0E0800D6
S2140809F02D0D08003E4B1B6B03F00303032B5FD83B
S214080A00DFE803F0020E2B2B3A4B5B6913F0800FDE
S214080A1014BF4FF400424FF4FA42374B1A604FE0C7
S214080A20334B1B6A13F0807F03D0344A324B1A606C
S214080A3046E0334A304B1A602D4B1B6A03F07003AE
S214080A40102B02D0202B04D03AE02E4A2A4B1A60EC
S214080A5036E02A4A284B1A6032E0254B1B6A13F008
S214080A60807F03D0254A244B1A6012E0244A224B82
S214080A701A601F4B1B6A03F07003102B02D0202B42
S214080A8004D006E01F4A1C4B1A6002E01B4A1A4BA9
S214080A901A60174B1B6B03F00303022B0DD1144A85
S214080AA0936A926A1448C3F30A41036801FB033346
S214080AB0D2B2B3FBF2F3036002E0134A0E4B1A609D
S214080AC00B4B1B6B03F07003702B07D10A4A136895
S214080AD00E49A1FB03135B0813607047044B1A6B9F
S214080AE00549C2F302120B68D3400B60704700BF7B
S214080AF000060E40101A0E402C010720001BB700F7
S214080B0000093D0000127A00001C4E0EABAAAAAAE5
S214080B10094B1B6813B9094A074B1A60064B1B6832
S214080B201A180749914204DB1046034A1060184613
S214080B3070474FF0FF307047000A0720782A0720D2
S214080B40FC7F08204FF0FF30704700BF4FF400537B
S214080B504B600020704700BF012070470020704798
S214080B60F0B583B004460D46002301931F4B984208
S214080B7007D11F461E4E38462946B0470028FAD1E8
S214080B8019E01C4B984209D11F461B4E384601A94E
S214080B90B0470028FAD1019B2B7019E0174B9842F2
S214080BA009D11E46144C304601A9A0470028FAD1A0
S214080BB0019B2B7018E0124B9C4209D11E460E4C26
S214080BC0304601A9A0470028FAD1019B2B700BE0FC
S214080BD00C4B9C4208D11E46074C304601A9A0473C
S214080BE00028FAD1019B2B7003B0F0BD00080E4018
S214080BF001090800008009402909080000C00940CA
S214080C0000000A4000400A4070B50C461E4B984249
S214080C1008D11E461D4D30462146A8470028FAD161
S214080C20012070BD1A4B984208D11E46194D304611
S214080C302146A8470028FAD1012070BD164B9842D5
S214080C4008D11E46134D30462146A8470028FAD13B
S214080C50012070BD114B984208D11E460D4D3046F6
S214080C602146A8470028FAD1012070BD0C4B9842AF
S214080C7008D11E46074D30462146A8470028FAD117
S214080C80012070BD002070BD00080E40F108080065
S214080C90008009401509080000C0094000000A4005
S214080CA000400A40F8B51A481A4B984710F0100F3B
S214080CB02DD0194A1368013313600A2B27D1174B16
S214080CC01B784BB1164A136801331360642B0BD19B
S214080CD00022124B1A7007E0114A1368013B136092
S214080CE013B901220D4B1A7000220B4B1A600D4CDB
S214080CF004232360064F0A4E3846214632680A4DBA
S214080D00A84705232360384621463268A847F8BD19
S214080D100040094095080800080A07203001072007
S214080D20040A07204C0A0720610808002DE9F04746
S214080D3086B03D4B98473D4B984708203C4CA0470B
S214080D403C4D3D4B1D603D4A3D4B1A603D4A3E4B6F
S214080D501A603E4F00974FF4E13301934FF4006357
S214080D6002930820A04728466946394B9847394ECB
S214080D70336898680021384DA847336858680021BA
S214080D80A8473648364B98472420A047354D28466E
S214080D900421354CA04728460521A047334B03932A
S214080DA0002604960597284603A9314B9847314CE8
S214080DB02681A6724FF00B0AC4F804A064272761A0
S214080DC0E6604FF00408C4F8008028462146DFF89D
S214080DD0B890C847284641463246274B98474FF4AE
S214080DE0807323810123A372C4F804A02761E660F8
S214080DF00527276028462146C847284639463246EA
S214080E001E4B98471E4B1022C3F88420C3F8842133
S214080E1083F824635A60284641461A4CA047284659
S214080E203946A047FEE700BF510108004102080006
S214080E306506080000080E40480A0720090C080046
S214080E40440A0720610B0800400A072000BD010578
S214080E50B908080060050720E90F0800AC29080053
S214080E60D90F0800004009408D080800A086010038
S214080E700D0708004C0A072099080800A90808006A
S214080E8000E100E0850808005907080070B50F4E15
S214080E900F4D761BB61018BF002405D0013455F840
S214080EA0043B9847A642F9D10A4E0B4D01F0AEFD19
S214080EB0761BB61018BF002406D0013455F8043B3C
S214080EC09847A642F9D170BD70BD00BF182A080021
S214080ED0182A0800202A0800182A080070B4840770
S214080EE046D0541E002A41D0CDB2034602E0621E08
S214080EF0E4B3144603F8015B9A07F8D1032C2ED9FD
S214080F00CDB245EA05250F2C45EA054519D92646EA
S214080F1003F11002103E0F2E42F8105C42F80C5CEB
S214080F2042F8085C42F8045C02F11002F2D8A4F118
S214080F30100222F00F0204F00F041032032C1344A0
S214080F400DD91E462246043A032A46F8045BFAD808
S214080F50221F22F003020432134404F003042CB1C7
S214080F60C9B21C4403F8011BA342FBD170BC7047EE
S214080F7014460346C2E700BFF0B5044689B00846E3
S214080F800D4600F0B5F8A36802219A89DFF844E018
S214080F9000F1010C012704AE029191040495059016
S214080FA0CDF80CC0CDF818E00797019606D4596E10
S214080FB042F4005221F400519A8159662046194697
S214080FC001AA00F0B3FB002814BF4FF0FF300A2038
S214080FD009B0F0BD082A0800024B01461868FFF75A
S214080FE0CBBF00BF6005072000290CBF02220022E5
S214080FF04FF4806300F000B82DE9F0413A4D0446FE
S2140810002E6890460D461F4616B1B36B002B3CD093
S214081010B8F1020F2FD8002F2DDB2146304600F0FE
S214081020ABF9A18900236360A3610B0627D421F0DE
S214081030830189B2B8F1020FA1812AD0002D36D0DB
S214081040B8F1010F11D089B201F00800274B80B221
S214081050F36325602561676178B111F0030F18BF47
S21408106000270020A760BDE8F08141F001017B421F
S214081070A181A361E7E74FF0FF30BDE8F081216961
S214081080304600F07BFAA189D1E7304600F008FA2E
S214081090BEE7002004F1430341F0020100250122C7
S2140810A0A181A560236023616261BDE8F081002FFD
S2140810B008BF4FF48067384600F060FD054628B143
S2140810C0A18941F0800189B2A181B9E74FF4806017
S2140810D000F054FD054618B9A1894FF0FF30D9E74E
S2140810E04FF48067ECE700BF60050720A5130800EB
S2140810F020F0030110F00300C0F1000051F8043B93
S21408110000F1040C4FEACC0C6FF000021CBF22FA68
S2140811100CF213434FF0010C4CEA0C2C4CEA0C4C26
S214081120A3EB0C0222EA030212EACC1204BF51F81F
S214081130043B0430F4D0C2F1000102EA0102B2FA1C
S21408114082F2C2F11F0200EBD200704738B52F4B6F
S214081150054618680C4610B1836B002B36D0A2895A
S21408116093B218070CD52069A8B113F001021ED057
S214081170636900225B42A361A260F0B1002038BD1B
S214081180D9063AD5580724D4206942F00803A38123
S2140811909BB20028E9D103F42072B2F5007FE4D0B0
S2140811A02846214600F07AFCA3892069DDE79907DE
S2140811B058BF6269A2600028E0D1A3891A06DED566
S2140811C043F04003A3814FF0FF3038BD00F068F9C4
S2140811D0C5E7216B49B104F14003994203D028467C
S2140811E000F0CCF9A28900232363206922F02402A8
S2140811F0002392B284E80900C7E742F040020923B8
S2140812002B604FF0FF30A28138BD00BF6005072075
S214081210024B13B1024800F005B870470000000002
S214081220B5140800014600200246034601F0B4BA89
S2140812308B892DE9F0419AB20D46110780463CD4B9
S2140812406A6843F40063002AAB8165DDAE6A002E47
S2140812504BD09BB203F48052002192B2D8F80040DB
S214081260C8F80010002A5BD02A6D5F0705D56968A4
S2140812702B6B521A0BB1EB6BD21A4046E969002366
S214081280B047461C56D0AB892A6923F400639BB244
S21408129000212A60DA04AB8169603BD4296BC8F860
S2140812A0004011B305F14003994202D0404600F0D1
S2140812B065F900202863BDE8F0812E69AEB1910774
S2140812C02C680CBF6B6900232E60A41BAB600AE079
S2140812D0324623466F6A4046E969B8470028A4EBB9
S2140812E00004064404DD002CF2DC0020BDE8F08192
S2140812F0AB894FF0FF3043F04003AB81BDE8F08187
S214081300AB892A6923F400639BB2AB81DB0469606E
S2140813102A60C3D52865C1E7EA6B002A96DCE4E7AD
S21408132001234046E969B047431C024619D0AB89F9
S214081330AE6A9AE7D8F800100029E1D01D2907D030
S214081340162905D0AB8943F04003AB81BDE8F08190
S214081350AB89296923F400630022AB8185E806007F
S2140813609CE7D8F80030002BE1D01D2B01D0162BB7
S214081370BED1C8F80040B8E710B5044682B008B138
S214081380836B53B1B1F90C0008B902B010BD204602
S21408139002B0BDE81040FFF74BBF019100F080F89F
S2140813A00199EFE7014900F051BB00BF612808002A
S2140813B02DE9F04F074635487D68002407F53B724F
S2140813C004230321F863C7F8E412C7F8E822C7F82D
S2140813D0E04283B02C606C60AC606C66EC812C617B
S2140813E06C61AC61AB81214605F15C000822FFF711
S2140813F075FDDFF89CB0BE68DFF898A0DFF8989017
S214081400DFF8988001230922C5F820B0C5F824A083
S214081410C5F82890C5F82C80ED612146F381B28185
S21408142006F15C0034607460B4607466346174619C
S214081430B46108220193FFF751FDFD6812200222CD
S214081440F661C6F820B0C6F824A0C6F82890C6F8F4
S2140814502C802146A881EA812C606C60AC606C66A2
S2140814602C616C61AC6105F15C000822FFF736FD63
S214081470019BED61C5F820B0C5F824A0C5F82890F2
S214081480C5F82C80BB6303B0BDE8F08FA513080031
S214081490ED260800112708004927080069270800D4
S2140814A0836B03B17047FFF783BF00BF704700BF69
S2140814B0704700BF38B5084B084DED1AAC1018BF7A
S2140814C0ED1805D0013C55F8043D9847002CF9D195
S2140814D0BDE8384001F0A4BA2C2A0800302A0800D3
S2140814E0F8B50C46224F064600F0FAFEBB685D6863
S2140814F025F00305291B01F6EF7121F47F6121F021
S2140815000F01A1F58054B4F5805F07DB3046002153
S21408151001F0DAF8BB682B44984204D0304600F055
S214081520E1FE0020F8BD3046614201F0CDF80130FA
S2140815300DD0104BBA6819682D1B45F001053046CA
S214081540091B5560196000F0CDFE0120F8BD304635
S214081550002101F0B9F8BA68831A0F2BDEDD064CB5
S2140815600449246843F00103001B53600860D5E76C
S21408157064050720180A07207009072000294ED09E
S2140815802DE9F0410C46804600F0AAFE54F8047C8B
S2140815906249A4F1080527F00102AB188E6858685E
S2140815A09E4220F003005AD0FE0758600BD454F829
S2140815B0087C01F1080EED1BAC683A44744567D008
S2140815C0EF68E760BC601C186468E4070CD4544FE6
S2140815D09C680244BC427CD0D86842F00103E060B4
S2140815E084606B60AA5003E042F001036B60AA5067
S2140815F0B2F5007F14D2D20801EBC2030124486872
S214081600921004FA02F29C681043AC60EB604860E3
S2140816109D60E5604046BDE8F04100F063BE704757
S214081620530A042B47D8930903F13804600001EBEA
S214081630800083683949834243D0596821F0030102
S214081640914202D99B689842F7D1DA68EA60AB60A3
S21408165040469560DD60BDE8F04100F043BEFF07F8
S214081660024407D454F8084C2D1BEB68A86822449B
S214081670C36098602B4B42F001001B6868609A4272
S2140816808D60C7D3284B40461968FFF729FFC1E786
S21408169019184968C90709D4D96802449B6842F0F2
S2140816A00100D9608B606860AA50B3E742F0010376
S2140816B06B60AA50AEE7142B14D803F15B046000E5
S2140816C0B5E74A68A4100120A04002434A601A46BB
S2140816D0BCE742F001034D610D61EC60AC606B60E5
S2140816E0AA5097E7542B04D8130B03F16E04600036
S2140816F09DE7B3F5AA7F04D8D30B03F177046000FF
S21408170095E740F25450834204D8930C03F17C04C6
S21408171060008CE7FC207E2489E700BF640507206C
S2140817206C0507206C090720140A07209368002B0D
S21408173000F0B1802DE9F04FB1F80CE083B01EF050
S214081740080F0C468146164628D00B6933B30EF0B0
S21408175002081FFA88F0356880B34FF0000BD846A9
S214081760DFF8E4A2B8F1000F00F08F80D0454346BA
S214081770484628BF5346E1695A46676AB84700286C
S21408178040F3A880B36883441B1AC0EB0808B3600C
S214081790002BE7D1002003B0BDE8F08F484621466D
S2140817A0FFF7D4FC002840F04681B4F80CE0356812
S2140817B00EF002081FFA88F00028CED11EF0010BA2
S2140817C040F09180D846B8F1000F58D01EF4007F3C
S2140817D0A76862D0B845BA46C0F0C2801EF4906FBB
S2140817E000F0C08067692169236807EB47075B1A22
S2140817F007EBD777581C7F10404487423A463CBFD1
S21408180007463A461EF4806F009300F0FB801146A8
S214081810484600F0BBF9009B8246002800F00E817F
S2140818201A462169009300F081FCA289009B22F4E5
S214081830906242F08002A2810AEB0300C4F810A06E
S214081840FB1A6761C24647462060A360524659465F
S21408185000F0E2FCA0682268C01BA060404602EBCD
S2140818600A032360B36883441B1AC0EB0808B360F6
S214081870002B8FD0B4F80CE0B8F1000FA6D1D5F83D
S21408188000B0D5F8048008359DE7D5F800B0D5F83F
S2140818900480083566E70020704720682369984268
S2140818A003D86269904580F08580474528BF47463B
S2140818B059463A4600F0B0FCA3682268DB1B3A4457
S2140818C0A3602260002B49D148462146FFF754FD05
S2140818D0002843D0A38943F040034FF0FF30A3818C
S2140818E003B0BDE8F08F8046834682460090BAF182
S2140818F0000F2BD0009B002B4FD0D045434628BF67
S2140819005346206821691F468842D4F808E0626971
S21408191003D90EEB020C63455EDC934224DB1346C8
S214081920676A4846E1695A46B847071ED2DDB8EBEB
S214081930070829D0B368BB44DB1BC7EB0A0AB360A9
S214081940002B3FF427AFBAF1000FD3D10023D5F808
S21408195000B0D5F804A000930835C8E7384681E7F4
S2140819604746C246206871E71A465946019300F072
S21408197053FCA2682168019BB8EB0708A2EB030298
S2140819800B44A2602360D5D148462146FFF7F4FCF5
S21408199000289FD1CDF80080CCE758460A21524649
S2140819A000F07AFB002841D001300123CBEB000879
S2140819B00093A2E76FF00043434528BF434693FBD6
S2140819C0F2F3676A03FB02F34846E1695A46B847EA
S2140819D000283FF747AF7DE762465946CDF804C072
S2140819E000F01AFC2368DDF804C048466344236008
S2140819F02146FFF7C1FCDDF804C000287FF46AAF73
S214081A00674694E7484600F06FFC009B824600282D
S214081A107FF412AF48462169FFF7B0FDA3890C2270
S214081A2023F080039BB2C9F8002054E701230AF18B
S214081A300108009361E74FF0FF30ACE60C23C9F8C5
S214081A400030A38947E700BF00FCFF7F2DE9F84375
S214081A5010F538761ED0884607464FF00009756898
S214081A60B468013D10D4A389013D012B08D9B4F907
S214081A700E30013304D038462146C04749EA0009EB
S214081A806B1C04F16804EED13668002EE7D1484690
S214081A90BDE8F883B1464846BDE8F8838B899AB214
S214081AA012F0020F3CD1F0B50C46B1F90E1091B009
S214081AB00029054619DB01AA00F014FF002812DBEE
S214081AC0029B03F47043A3F50057B7FA87F7B3F5FC
S214081AD0004F4FEA57172AD0A3894FF4806643F47D
S214081AE00063A3810BE0A3899AB212F0800F43F437
S214081AF00063A3810CBF4FF4806640260027284663
S214081B00314600F043F8A38940B31A4A43F08003ED
S214081B10EA63A3812060206166619FB911B0F0BDB9
S214081B2001F1430301220B600B614A617047124BB7
S214081B30A26A9A42D0D1A3894FF480663343A38120
S214081B40E664DCE72846B4F90E1000F0DFFE00284D
S214081B50E4D0A38943F00103A381DFE79A05DDD427
S214081B6004F1430243F002030121A38122602261AB
S214081B706161D3E7A513080049270800024B014610
S214081B80186800F003B800BF600507202DE9F04F7D
S214081B9001F10B05162D83B0064627D935F0070543
S214081BA000F1B680A94200F2B38000F099FBB5F5C3
S214081BB0FC7F22D2BC4FE80807EBC003DC689C42D7
S214081BC000F0BC816368E16823F0030323445A6885
S214081BD0A56842F00102E96030468D605A6000F060
S214081BE081FB0834204603B0BDE8F08F102900F2C8
S214081BF08F8000F075FB1025DCE7680A00F08F8000
S214081C00042800F24781A80938304100A64F07EBA0
S214081C108101CC68A14206D10CE0002A80F28280BD
S214081C20E468A14206D0636823F003035A1B0F2A10
S214081C30F3DD013801309C493C6901F1080E744512
S214081C4000F07181636823F003035A1B0F2A00F320
S214081C505781002AC1F814E0C1F810E066DAB3F537
S214081C60007F80F02D81DB0801EBC3084FEAA30C48
S214081C704A68012303FA0CF3D8F808C01343C4F8DB
S214081C8008C0C4F80C804B60C8F80840CCF80C4074
S214081C908210012494409C4255D8234206D120F055
S214081CA003006400234200F10400FAD007EBC008E2
S214081CB0C4468146DCF80C309C4507D135E100293E
S214081CC080F24581DB689C4500F02F815A6822F037
S214081CD00302511B0F29F2DD1C46DA6854F808CFB8
S214081CE045F0010941F001081D44C3F80490304648
S214081CF0CCF80C20C2F808C07D613D61C5F80CE040
S214081D00C5F808E0C5F80480695000F0EBFA69E702
S214081D10002420460C23336003B0BDE8F08F7E21F4
S214081D203F2073E723445A68E16851E723445A681A
S214081D30304642F001025A60083400F0D3FA2046D2
S214081D4003B0BDE8F08FBC68636823F00308454518
S214081D5004D8C5EB08030F2B00F38C80534BDFF831
S214081D605CA11A68DAF800302A44013304EB080B41
S214081D7000F0518102F580520F3222F47F6222F081
S214081D800F0211463046019200F09EFCB0F1FF3F6C
S214081D908146019A00F04881834500F2EF80444B63
S214081DA0CB4519681144196000F04381DAF8000041
S214081DB0DFF808E101301BBFCBEB090B5944CEF81E
S214081DC00090196019F0070100F00881C1F10800B9
S214081DD0C1F58051814408314A44C2F30B02C2EB74
S214081DE0010A51463046019300F06EFC431C019BE5
S214081DF000F02D81C9EB0002524442F00102196836
S214081E00BC425144C7F808901960C9F80420DFF8A6
S214081E10A0A016D0B8F10F0F40F2EF806268A8F1C4
S214081E200C0323F0070302F00102E0184FF0050E3A
S214081E301A430F2B6260C0F804E0C0F808E000F20E
S214081E400A811C4BBC681A68914288BF19601A4BF5
S214081E501A689142626888BF196022F003029542A8
S214081E60A2EB050301D80F2B04DC304600F03AFA43
S214081E700024B7E645F0010243F0010325446260FA
S214081E803046BD6008346B6000F02CFA204603B07C
S214081E90BDE8F08F142869D9542800F29880280BDA
S214081EA06E304100B2E600BF64050720140A07201A
S214081EB0180A0720100A07200C0A072070090720AE
S214081EC05A0A042A55D9142A00F2A7805B324FEA28
S214081ED0420C07EB8C0CDCF80810DFF8B88161457B
S214081EE07FD04A6822F00302934202D289688C4562
S214081EF0F7D1CA687B68E260A1609460CC60C7E6E8
S214081F0045F0010742F001032544676030464D61FD
S214081F100D61C5F80CE0C5F808E06B60AA500834F7
S214081F2000F0E0F95EE64B68B2E609F1010919F03F
S214081F30030F0CF1080C7FF4BDAE2CE004F1080387
S214081F406469A34208BF02303FF475AE3AE61C4601
S214081F501A445168DB6854F8085F41F00101516083
S214081F603046EB609D6000F0BDF93BE65B30410013
S214081F704CE69A0938324FEA420CAAE7BC42454B6F
S214081F803FF40DAF9C68626822F0030267E7D8F852
S214081F90008098457CD110F0030FA8F1080300F1E3
S214081FA0FF30F4D17B6823EA04037B6064009C421C
S214081FB03FF6C9AE002C3FF4C6AE234248467FF42F
S214081FC075AE6400234200F10400FAD06EE6B0F560
S214081FD0AA7F18D8E80B7730410017E64FF48051EF
S214081FE0FAE6D8F8043092104FF0010C0CFA02F218
S214081FF01343C8F804300A467DE70123C9F80430BD
S2140820004C4600222BE740F2545398421CD8A80CA2
S2140820107C304100FAE51032B3E6542A23D81A0B6E
S2140820206E324FEA420C54E7BC68626822F003023C
S21408203015E7CBF30B0000287FF4B8AE4244BB6824
S21408204042F001025A60FCE6FC217E20DEE5012211
S2140820504FF0000AD3E604F108013046FFF78EFA7F
S214082060DAF80010EDE6B2F5AA7F04D8DA0B773274
S2140820704FEA420C2DE740F254518A4204D89A0C93
S2140820807C324FEA420C24E74FF0FC0C7E2220E715
S2140820907B688BE764050720830770B4C9B240D015
S2140820A0541E002A3FD003788B4218BF431C05D124
S2140820B01CE0ECB10278013C8A4217D013F0030FFB
S2140820C0184603F10103F4D1032C14D884B103781D
S2140820D08B420BD00519431C02E002788A4205D0D1
S2140820E0AB42184603F10103F7D1002070BC7047D5
S2140820F0204670BC7047024641EA012646EA064674
S214082100136810467340A3F1013525EA030313F05C
S214082110803F02F10402D9D1043C032C1046EFD8C4
S214082120D4E71446D0E71046E0E700BF844641EA05
S214082130000313F0030349D1403A23D30B68036026
S2140821404B6843608B688360CB68C3600B69036128
S2140821504B6943618B698361CB69C3610B6A036210
S2140821604B6A43628B6A8362CB6AC3620B6B0363F8
S2140821704B6B43638B6B8363CB6BC36340304031DD
S214082180403ADBD230320BD30B6803604B684360AF
S2140821908B688360CB68C36010301031103AF3D276
S2140821A00C3205D351F8043B40F8043B043AF9D204
S2140821B0043208D0D2071CBF11F8013B00F8013BD7
S2140821C001D30B8803806046704700BF082A13D3E4
S2140821D08B07B1D010F00303AED0C3F10403D21AB4
S2140821E0DB071CBF11F8013B00F8013BA4D331F80C
S2140821F0023B20F8023B9FE7043AD9D3013A11F88C
S214082200013B00F8013BF9D20B7803704B7843701A
S2140822108B788370604670478842F0B50DD98B1866
S21408222098420AD28118002A54D09A1A13F8014DF7
S214082230934201F8014DF9D1F0BD0F2A48D940EA7A
S21408224001039B0747D1154600F1100401F110035E
S21408225053F8106C103D44F8106C53F80C6C0F2DA6
S21408226044F80C6C53F8086C04F1100444F8186C25
S21408227053F8046C03F1100344F8146CE8D8A2F180
S214082280100323F00F0302F00F0E1033BEF1030FF6
S2140822901944034421D90E4674461D1F56F8047B7C
S2140822A0043C032C45F8047FF8D8AEF1040424F067
S2140822B0030404342344214402F0030252B1013BD0
S2140822C00A4411F8014B914203F8014FF9D1F0BDC9
S2140822D00346F3E7F0BD0346F1E77246EEE700BFB4
S2140822E0704700BF704700BF2DE9F04F174683B010
S2140822F00D46002900F0E280814607F10B04FFF73F
S214082300EFFF55F8043C162C23F00306A5F1080841
S2140823104BD810221446A7424CD8964251DADFF81A
S214082320A4B308EB0601DBF80800884200F0D38067
S214082330486820F0010E8E44DEF804E01EF0010F17
S21408234054D120F003003044904280F2BD80DB0771
S21408235000F1908055F8083CC3EB080ADAF8043018
S21408236023F0030300EB030E964549DB5746CB687C
S2140823708968321FCB60996057F8081FDAF80C3066
S214082380242ACB60996000F23381132A40F2FA803F
S2140823902B681B2ACAF808306B68CAF80C3000F29B
S2140823A03B8108350AF11003EDE024F00704002C01
S2140823B02246B0DA0C230020C9F8003003B0BDE886
S2140823C0F08F2F46321B0F2A03F0010340D8334301
S2140823D0C8F804304644736843F0010373604846FF
S2140823E0FFF780FF384603B0BDE8F08FD90741D421
S2140823F055F8083CC3EB080ADAF8043023F0030360
S2140824003344934236DB5746DAF80C1057F8080F71
S214082410321F242AC160886000F2F580132A40F231
S214082420F08029681B2ACAF808106968CAF80C10D0
S21408243000F2078108350AF1100229681E46116065
S2140824406968D0465160AB689360DAF80430B9E73B
S21408245008EB0401234342F00100C8F804300A449C
S21408246048605368083143F0010353604846FFF755
S21408247085F8B4E739464846FFF788FB074600283C
S214082480ADD055F8043CA0F1080123F001024244FF
S214082490914200F0A680321F242A00F29380132A65
S2140824A065D803462A4611681960516859609268CB
S2140824B09A6029464846FFF761F890E7114603B048
S2140824C0BDE8F04FFFF762BBCA6889682F46CA6046
S2140824D00646916076E7416804F1100021F0030192
S2140824E0314481425ADADB07C4D455F8083CC3EBBA
S2140824F0080ADAF8043023F0030301EB030C6045FE
S2140825003FF77EAF5746DAF80C3057F8081F321FE9
S214082510242ACB60996000F2B680132A40F2A7807E
S2140825202B681B2ACAF808306B68CAF80C3000F209
S214082530B38008350AF110032A681A606A685A6078
S214082540AA689A60C4EB0C030AEB040243F0010382
S214082550CBF808205360DAF80430484603F0010345
S2140825601C43CAF80440FFF7BDFE38463BE72B6815
S2140825701B2A03606B68436028D800F1080305F13E
S214082580080290E73B462A6876461A606A68D0468C
S2140825905A60AA689A60DAF8043013E70B1B08EB4F
S2140825A0040243F00103CBF80820536055F8043CB6
S2140825B0484603F001031C4345F8044CFFF792FE17
S2140825C0284610E72946FFF727FE72E7AB68242A55
S2140825D08360EB68C3602BD000F1100305F110028E
S2140825E061E750F8042C2F4622F003021644E9E669
S2140825F0294638467646D046FFF70EFEDAF8043007
S214082600E0E63A4619E7294638461E46D046FFF71A
S21408261003FEDAF80430D5E6AB68242ACAF8103088
S214082620EB68CAF8143018D010350AF11803AAE770
S2140826302A6900F118030261696905F11802416107
S21408264031E7A968242ACAF81010E968CAF81410ED
S2140826500FD010350AF11802EFE62A690AF12003AE
S214082660CAF818206A691835CAF81C208BE73B4652
S21408267062E729690AF12002CAF81810696918354C
S214082680CAF81C10D9E629463846CDF804C0FFF724
S214082690C3FDDDF804C055E7AB68242ACAF8103035
S2140826A0EB68CAF8143003D010350AF1180343E76C
S2140826B02A690AF12003CAF818206A691835CAF880
S2140826C01C2039E76405072038B5074C0023054663
S2140826D008462360FEF71CFA431C00D038BD236862
S2140826E0002BFBD02B6038BD740A072010B50C46AB
S2140826F0B1F90E1000F030F9002803DB236D03440F
S214082700236510BDA38923F48053A38110BD00BFA1
S2140827102DE9F0410C4689891D46CB051646074625
S21408272006D5B4F90E100022022300F001F9A1899B
S21408273021F48051A1813846B4F90E1032462B4652
S214082740BDE8F04100F014B810B50C46B1F90E100B
S21408275000F0EEF8A389421C0EBF23F4805343F41E
S21408276080532065A38110BDB1F90E1000F066B83D
S21408277070B5084C06460025084611461A462560D8
S214082780FDF736FD431C00D070BD2368002BFBD038
S214082790336070BD740A07202DE9F047254C0646BD
S2140827A025688846D5F8484192469946C4B3606875
S2140827B01F2817DC411C76B104EB8003C3F888A0F9
S2140827C0D4F88851012282401543022EC4F8885155
S2140827D0C3F808911ED0831C6160002044F823804B
S2140827E0BDE8F087144B03B34FF4C870FFF7C6F97B
S2140827F00446D0B1D5F84831002784E88800384622
S214082800C5F848410121C4F88871C4F88C71002EB7
S214082810E1D0D1E7D4F88C311A43C4F88C21DAE732
S21408282005F5A674C5F84841C1E74FF0FF30BDE886
S214082830F08700BF042A08007D1B080038B5074C3F
S2140828400023054608462360FEF77CF9431C00D0A3
S21408285038BD2368002BFBD02B6038BD740A0720D0
S21408286000293DD070B505460C4608B1836B7BB38E
S214082870B4F90C300BB9002070BD28462146FEF787
S214082880D7FCE36A064633B12846E169984700282C
S214082890B8BF4FF0FF36A3891B061CD4216B41B185
S2140828A004F14003994202D02846FEF767FE00234B
S2140828B02363616C21B12846FEF760FE002363643B
S2140828C0FEF7F4FD0023A381FEF7F2FD304670BD47
S2140828D0FEF7E6FDCCE728462169FEF74FFEDDE762
S2140828E00020704738B5084C0023054608461146B0
S2140828F02360FEF72BF9431C00D038BD2368002B55
S214082900FBD02B6038BD00BF740A072038B5074CCB
S2140829100023054608462360FEF71EF9431C00D030
S21408292038BD2368002BFBD02B6038BD740A0720FF
S21408293070B5084C06460025084611461A46256016
S214082940FEF70CF9431C00D070BD2368002BFBD0A3
S214082950336070BD740A072070B5084C064600251B
S214082960084611461A462560FDF724FC431C00D08D
S21408297070BD2368002BFBD0336070BD740A072037
S214082980010000000200000004000000080000002B
S214082990100000002000000040000000800000003A
S2140829A00001000000020000000400002D2D205049
S2140829B0574D204C4544204578616D706C65202D38
S2140829C02D0D0A2D2D2041726475696E6F20447591
S2140829D0652F58202D2D0D0A2D2D20436F6D7069FB
S2140829E06C65643A204170722032372032303136B6
S2140829F02030343A34363A3033202D2D0D0000007E
S214082A0043000000380107200A000000F8B500BFA0
S214082A10F8BC08BC9E467047111208001901080049
S214082A20F8B500BFF8BC08BC9E467047F50008001D
S214082A304FF48063204A136002F5007213601F4B40
S214082A401B6A13F0807F07D11D4A1C4B1A621A4670
S214082A50936E13F0010FFBD01A4A184B1A621A46E7
S214082A60936E13F4803FFBD0144A136B23F00303D2
S214082A7043F001031363936E13F0080FFBD0124A5A
S214082A800E4B9A621A46936E13F0020FFBD0112271
S214082A900A4B1A631A46936E13F0080FFBD01222DD
S214082AA0064B1A631A46936E13F0080FFBD0074AB4
S214082AB0074B1A60704700BF000A0E4000060E401B
S214082AC00908370009083701013F0D2000BD010538
S214082AD02C0107201B4B984206D800231A4A13607D
S214082AE002F5007213607047184B984207D84FF4E7
S214082AF08073154A136002F5007213607047144B12
S214082B00984207D84FF400730F4A136002F5007214
S214082B10136070470F4B984207D84FF440730A4A21
S214082B20136002F50072136070470B4B984294BF0F
S214082B304FF480634FF4A063034A136002F50072F3
S214082B4013607047BFEA2101000A0E407FF0FA02C0
S214082B50FF8FD003FFB3C4047F4A5D0500093D001C
S214082B600100000000000000000000002404072008
S214082B708C040720F4040720000000000000000072
S214082B800000000000000000000000000000000038
S214082B90000000000000000000000000002A0800F6
S214082BA00000000000000000000000000000000018
S214082BB00000000000000000000000000000000008
S214082BC000000000000000000000000000000000F8
S214082BD000000000000000000000000000000000E8
S214082BE000000000000000000000000000000000D8
S214082BF000000000000000000000000000000000C8
S214082C0000000000000000000000000000000000B7
S214082C1001000000000000000E33CDAB34126DE654
S214082C20ECDE05000B0000000000000000000000BD
S214082C300000000000000000000000000000000087
S214082C400000000000000000000000000000000077
S214082C500000000000000000000000000000000067
S214082C600000000000000000000000000000000057
S214082F903801072000000000000000006405072034
S214082FA0640507206C0507206C05072074050720B4
S214082FB0740507207C0507207C0507208405072064
S214082FC0840507208C0507208C0507209405072014
S214082FD0940507209C0507209C050720A4050720C4
S214082FE0A4050720AC050720AC050720B405072074
S214082FF0B4050720BC050720BC050720C405072024
S214083000C4050720CC050720CC050720D4050720D3
S214083010D4050720DC050720DC050720E405072083
S214083020E4050720EC050720EC050720F405072033
S214083030F4050720FC050720FC05072004060720E2
S214083040040607200C0607200C060720140607208F
S214083050140607201C0607201C060720240607203F
S214083060240607202C0607202C06072034060720EF
S214083070340607203C0607203C060720440607209F
S214083080440607204C0607204C060720540607204F
S214083090540607205C0607205C06072064060720FF
S2140830A0640607206C0607206C06072074060720AF
S2140830B0740607207C0607207C060720840607205F
S2140830C0840607208C0607208C060720940607200F
S2140830D0940607209C0607209C060720A4060720BF
S2140830E0A4060720AC060720AC060720B40607206F
S2140830F0B4060720BC060720BC060720C40607201F
S214083100C4060720CC060720CC060720D4060720CE
S214083110D4060720DC060720DC060720E40607207E
S214083120E4060720EC060720EC060720F40607202E
S214083130F4060720FC060720FC06072004070720DD
S214083140040707200C0707200C070720140707208A
S214083150140707201C0707201C070720240707203A
S214083160240707202C0707202C07072034070720EA
S214083170340707203C0707203C070720440707209A
S214083180440707204C0707204C070720540707204A
S214083190540707205C0707205C07072064070720FA
S2140831A0640707206C0707206C07072074070720AA
S2140831B0740707207C0707207C070720840707205A
S2140831C0840707208C0707208C070720940707200A
S2140831D0940707209C0707209C070720A4070720BA
S2140831E0A4070720AC070720AC070720B40707206A
S2140831F0B4070720BC070720BC070720C40707201A
S214083200C4070720CC070720CC070720D4070720C9
S214083210D4070720DC070720DC070720E407072079
S214083220E4070720EC070720EC070720F407072029
S214083230F4070720FC070720FC07072004080720D8
S214083240040807200C0807200C0807201408072085
S214083250140807201C0807201C0807202408072035
S214083260240807202C0807202C08072034080720E5
S214083270340807203C0807203C0807204408072095
S214083280440807204C0807204C0807205408072045
S214083290540807205C0807205C08072064080720F5
S2140832A0640807206C0807206C08072074080720A5
S2140832B0740807207C0807207C0807208408072055
S2140832C0840807208C0807208C0807209408072005
S2140832D0940807209C0807209C080720A4080720B5
S2140832E0A4080720AC080720AC080720B408072065
S2140832F0B4080720BC080720BC080720C408072015
S214083300C4080720CC080720CC080720D4080720C4
S214083310D4080720DC080720DC080720E408072074
S214083320E4080720EC080720EC080720F408072024
S214083330F4080720FC080720FC08072004090720D3
S214083340040907200C0907200C0907201409072080
S214083350140907201C0907201C0907202409072030
S214083360240907202C0907202C09072034090720E0
S214083370340907203C0907203C0907204409072090
S214083380440907204C0907204C0907205409072040
S214083390540907205C0907205C0907200000020082
S2080833A0FFFFFFFF20
S804080945A5
